{
  "contractName": "SolidityApp",
  "abi": [
    {
      "inputs": [],
      "stateMutability": "nonpayable",
      "type": "constructor"
    },
    {
      "anonymous": false,
      "inputs": [
        {
          "indexed": false,
          "internalType": "string",
          "name": "message",
          "type": "string"
        }
      ],
      "name": "transactionSuccessful",
      "type": "event"
    },
    {
      "inputs": [],
      "name": "ownerOfContract",
      "outputs": [
        {
          "internalType": "address payable",
          "name": "",
          "type": "address"
        }
      ],
      "stateMutability": "view",
      "type": "function",
      "constant": true
    },
    {
      "inputs": [
        {
          "internalType": "uint256",
          "name": "amount",
          "type": "uint256"
        }
      ],
      "name": "buyShoe",
      "outputs": [],
      "stateMutability": "payable",
      "type": "function",
      "payable": true
    }
  ],
  "bytecode": "0x608060405234801561001057600080fd5b50336000806101000a81548173ffffffffffffffffffffffffffffffffffffffff021916908373ffffffffffffffffffffffffffffffffffffffff160217905550610432806100606000396000f3fe6080604052600436106100295760003560e01c80631315879f1461002e578063468229ae1461004a575b600080fd5b610048600480360381019061004391906101f8565b610075565b005b34801561005657600080fd5b5061005f610199565b60405161006c9190610266565b60405180910390f35b600034116100b8576040517f08c379a00000000000000000000000000000000000000000000000000000000081526004016100af906102de565b60405180910390fd5b3481146100fa576040517f08c379a00000000000000000000000000000000000000000000000000000000081526004016100f190610370565b60405180910390fd5b60008054906101000a900473ffffffffffffffffffffffffffffffffffffffff1673ffffffffffffffffffffffffffffffffffffffff166108fc349081150290604051600060405180830381858888f19350505050158015610160573d6000803e3d6000fd5b507fdad182ca6acd49d1164702c02ec01b9eb96fe4062e8d1ce6ef85199d97079c0c60405161018e906103dc565b60405180910390a150565b60008054906101000a900473ffffffffffffffffffffffffffffffffffffffff1681565b600080fd5b6000819050919050565b6101d5816101c2565b81146101e057600080fd5b50565b6000813590506101f2816101cc565b92915050565b60006020828403121561020e5761020d6101bd565b5b600061021c848285016101e3565b91505092915050565b600073ffffffffffffffffffffffffffffffffffffffff82169050919050565b600061025082610225565b9050919050565b61026081610245565b82525050565b600060208201905061027b6000830184610257565b92915050565b600082825260208201905092915050565b7f416d6f756e74206d7573742062652067726561746572207468616e207a65726f600082015250565b60006102c8602083610281565b91506102d382610292565b602082019050919050565b600060208201905081810360008301526102f7816102bb565b9050919050565b7f416d6f756e7420646f6573206e6f74206d61746368207769746820746865207060008201527f7269636500000000000000000000000000000000000000000000000000000000602082015250565b600061035a602483610281565b9150610365826102fe565b604082019050919050565b600060208201905081810360008301526103898161034d565b9050919050565b7f7472616e73616374696f6e207375636365737366756c00000000000000000000600082015250565b60006103c6601683610281565b91506103d182610390565b602082019050919050565b600060208201905081810360008301526103f5816103b9565b905091905056fea264697066735822122014eddbb805f5c6b9510c3e9f7b674fffd4c2bd2abbe7e6108a7707c492f060cf64736f6c634300080a0033",
  "immutableReferences": {},
  "source": "// SPDX-License-Identifier: GPL-3.0\npragma solidity >=0.7.0 <0.9.0;\n\ncontract SolidityApp {\n    address payable public ownerOfContract;\n\n    event transactionSuccessful(string message);\n\n    constructor() {\n        ownerOfContract = payable(msg.sender);\n    }\n\n    function buyShoe(uint256 amount) external payable {\n        require(msg.value > 0, \"Amount must be greater than zero\");\n        require(amount == msg.value, \"Amount does not match with the price\");\n        ownerOfContract.transfer(msg.value);\n        emit transactionSuccessful(\"transaction successful\");\n    }\n}",
  "sourcePath": "/home/admin-pc/Desktop/Solidity/project_2/solidity_app/contracts/SolidityApp.sol",
  "compiler": {
    "name": "solc",
    "version": "0.8.10+commit.fc410830.Emscripten.clang"
  },
  "schemaVersion": "3.4.3",
  "updatedAt": "2021-12-01T09:44:42.595Z",
  "networkType": "ethereum",
  "devdoc": {
    "kind": "dev",
    "methods": {},
    "version": 1
  },
  "userdoc": {
    "kind": "user",
    "methods": {},
    "version": 1
  }
}